{
  "contractName": "PostStorage",
  "abi": [
    {
      "inputs": [
        {
          "internalType": "address",
          "name": "_userAddress",
          "type": "address"
        }
      ],
      "name": "getUsername",
      "outputs": [
        {
          "internalType": "string",
          "name": "",
          "type": "string"
        }
      ],
      "stateMutability": "view",
      "type": "function",
      "constant": true
    },
    {
      "inputs": [
        {
          "internalType": "string",
          "name": "_username",
          "type": "string"
        }
      ],
      "name": "setUsername",
      "outputs": [],
      "stateMutability": "nonpayable",
      "type": "function"
    },
    {
      "inputs": [
        {
          "internalType": "string",
          "name": "_content",
          "type": "string"
        }
      ],
      "name": "insertPost",
      "outputs": [],
      "stateMutability": "nonpayable",
      "type": "function"
    },
    {
      "inputs": [
        {
          "internalType": "address",
          "name": "_address",
          "type": "address"
        }
      ],
      "name": "getPosts",
      "outputs": [
        {
          "components": [
            {
              "internalType": "string",
              "name": "content",
              "type": "string"
            },
            {
              "internalType": "uint256",
              "name": "likes",
              "type": "uint256"
            },
            {
              "internalType": "uint256",
              "name": "timestamp",
              "type": "uint256"
            }
          ],
          "internalType": "struct PostStorage.Post[]",
          "name": "",
          "type": "tuple[]"
        }
      ],
      "stateMutability": "view",
      "type": "function",
      "constant": true
    },
    {
      "inputs": [
        {
          "internalType": "address",
          "name": "_address",
          "type": "address"
        },
        {
          "internalType": "uint256",
          "name": "_postIndex",
          "type": "uint256"
        }
      ],
      "name": "getPost",
      "outputs": [
        {
          "components": [
            {
              "internalType": "string",
              "name": "content",
              "type": "string"
            },
            {
              "internalType": "uint256",
              "name": "likes",
              "type": "uint256"
            },
            {
              "internalType": "uint256",
              "name": "timestamp",
              "type": "uint256"
            }
          ],
          "internalType": "struct PostStorage.Post",
          "name": "",
          "type": "tuple"
        }
      ],
      "stateMutability": "view",
      "type": "function",
      "constant": true
    },
    {
      "inputs": [
        {
          "internalType": "address",
          "name": "_address",
          "type": "address"
        },
        {
          "internalType": "uint256",
          "name": "_postIndex",
          "type": "uint256"
        }
      ],
      "name": "likePost",
      "outputs": [],
      "stateMutability": "nonpayable",
      "type": "function"
    }
  ],
  "bytecode": "0x60806040526000600155600060025534801561001a57600080fd5b50610e538061002a6000396000f3fe608060405234801561001057600080fd5b50600436106100625760003560e01c806348351529146100675780634caf9d0b146100835780637ecff119146100b357806387ef62db146100e3578063ce43c032146100ff578063ed59313a1461012f575b600080fd5b610081600480360381019061007c919061081a565b61014b565b005b61009d6004803603810190610098919061085a565b610246565b6040516100aa9190610a41565b60405180910390f35b6100cd60048036038101906100c8919061081a565b61038c565b6040516100da9190610ab3565b60405180910390f35b6100fd60048036038101906100f89190610c0a565b6104ae565b005b6101196004803603810190610114919061085a565b610582565b6040516101269190610c9d565b60405180910390f35b61014960048036038101906101449190610c0a565b610655565b005b60008060008473ffffffffffffffffffffffffffffffffffffffff1673ffffffffffffffffffffffffffffffffffffffff16815260200190815260200160002060010182815481106101a05761019f610cbf565b5b90600052602060002090600302016001015490506001816101c19190610d1d565b6000808573ffffffffffffffffffffffffffffffffffffffff1673ffffffffffffffffffffffffffffffffffffffff168152602001908152602001600020600101838154811061021457610213610cbf565b5b9060005260206000209060030201600101819055506002600081548092919061023c90610d73565b9190505550505050565b60606000808373ffffffffffffffffffffffffffffffffffffffff1673ffffffffffffffffffffffffffffffffffffffff168152602001908152602001600020600101805480602002602001604051908101604052809291908181526020016000905b8282101561038157838290600052602060002090600302016040518060600160405290816000820180546102dc90610deb565b80601f016020809104026020016040519081016040528092919081815260200182805461030890610deb565b80156103555780601f1061032a57610100808354040283529160200191610355565b820191906000526020600020905b81548152906001019060200180831161033857829003601f168201915b5050505050815260200160018201548152602001600282015481525050815260200190600101906102a9565b505050509050919050565b6103946106ae565b6000808473ffffffffffffffffffffffffffffffffffffffff1673ffffffffffffffffffffffffffffffffffffffff16815260200190815260200160002060010182815481106103e7576103e6610cbf565b5b906000526020600020906003020160405180606001604052908160008201805461041090610deb565b80601f016020809104026020016040519081016040528092919081815260200182805461043c90610deb565b80156104895780601f1061045e57610100808354040283529160200191610489565b820191906000526020600020905b81548152906001019060200180831161046c57829003601f168201915b5050505050815260200160018201548152602001600282015481525050905092915050565b6000803373ffffffffffffffffffffffffffffffffffffffff1673ffffffffffffffffffffffffffffffffffffffff16815260200190815260200160002060010160405180606001604052808381526020016000815260200142815250908060018154018082558091505060019003906000526020600020906003020160009091909190915060008201518160000190805190602001906105509291906106cf565b50602082015181600101556040820151816002015550506001600081548092919061057a90610d73565b919050555050565b60606000808373ffffffffffffffffffffffffffffffffffffffff1673ffffffffffffffffffffffffffffffffffffffff16815260200190815260200160002060000180546105d090610deb565b80601f01602080910402602001604051908101604052809291908181526020018280546105fc90610deb565b80156106495780601f1061061e57610100808354040283529160200191610649565b820191906000526020600020905b81548152906001019060200180831161062c57829003601f168201915b50505050509050919050565b806000803373ffffffffffffffffffffffffffffffffffffffff1673ffffffffffffffffffffffffffffffffffffffff16815260200190815260200160002060000190805190602001906106aa9291906106cf565b5050565b60405180606001604052806060815260200160008152602001600081525090565b8280546106db90610deb565b90600052602060002090601f0160209004810192826106fd5760008555610744565b82601f1061071657805160ff1916838001178555610744565b82800160010185558215610744579182015b82811115610743578251825591602001919060010190610728565b5b5090506107519190610755565b5090565b5b8082111561076e576000816000905550600101610756565b5090565b6000604051905090565b600080fd5b600080fd5b600073ffffffffffffffffffffffffffffffffffffffff82169050919050565b60006107b182610786565b9050919050565b6107c1816107a6565b81146107cc57600080fd5b50565b6000813590506107de816107b8565b92915050565b6000819050919050565b6107f7816107e4565b811461080257600080fd5b50565b600081359050610814816107ee565b92915050565b600080604083850312156108315761083061077c565b5b600061083f858286016107cf565b925050602061085085828601610805565b9150509250929050565b6000602082840312156108705761086f61077c565b5b600061087e848285016107cf565b91505092915050565b600081519050919050565b600082825260208201905092915050565b6000819050602082019050919050565b600081519050919050565b600082825260208201905092915050565b60005b838110156108ed5780820151818401526020810190506108d2565b838111156108fc576000848401525b50505050565b6000601f19601f8301169050919050565b600061091e826108b3565b61092881856108be565b93506109388185602086016108cf565b61094181610902565b840191505092915050565b610955816107e4565b82525050565b600060608301600083015184820360008601526109788282610913565b915050602083015161098d602086018261094c565b5060408301516109a0604086018261094c565b508091505092915050565b60006109b7838361095b565b905092915050565b6000602082019050919050565b60006109d782610887565b6109e18185610892565b9350836020820285016109f3856108a3565b8060005b85811015610a2f5784840389528151610a1085826109ab565b9450610a1b836109bf565b925060208a019950506001810190506109f7565b50829750879550505050505092915050565b60006020820190508181036000830152610a5b81846109cc565b905092915050565b60006060830160008301518482036000860152610a808282610913565b9150506020830151610a95602086018261094c565b506040830151610aa8604086018261094c565b508091505092915050565b60006020820190508181036000830152610acd8184610a63565b905092915050565b600080fd5b600080fd5b7f4e487b7100000000000000000000000000000000000000000000000000000000600052604160045260246000fd5b610b1782610902565b810181811067ffffffffffffffff82111715610b3657610b35610adf565b5b80604052505050565b6000610b49610772565b9050610b558282610b0e565b919050565b600067ffffffffffffffff821115610b7557610b74610adf565b5b610b7e82610902565b9050602081019050919050565b82818337600083830152505050565b6000610bad610ba884610b5a565b610b3f565b905082815260208101848484011115610bc957610bc8610ada565b5b610bd4848285610b8b565b509392505050565b600082601f830112610bf157610bf0610ad5565b5b8135610c01848260208601610b9a565b91505092915050565b600060208284031215610c2057610c1f61077c565b5b600082013567ffffffffffffffff811115610c3e57610c3d610781565b5b610c4a84828501610bdc565b91505092915050565b600082825260208201905092915050565b6000610c6f826108b3565b610c798185610c53565b9350610c898185602086016108cf565b610c9281610902565b840191505092915050565b60006020820190508181036000830152610cb78184610c64565b905092915050565b7f4e487b7100000000000000000000000000000000000000000000000000000000600052603260045260246000fd5b7f4e487b7100000000000000000000000000000000000000000000000000000000600052601160045260246000fd5b6000610d28826107e4565b9150610d33836107e4565b9250827fffffffffffffffffffffffffffffffffffffffffffffffffffffffffffffffff03821115610d6857610d67610cee565b5b828201905092915050565b6000610d7e826107e4565b91507fffffffffffffffffffffffffffffffffffffffffffffffffffffffffffffffff821415610db157610db0610cee565b5b600182019050919050565b7f4e487b7100000000000000000000000000000000000000000000000000000000600052602260045260246000fd5b60006002820490506001821680610e0357607f821691505b60208210811415610e1757610e16610dbc565b5b5091905056fea26469706673582212202efb4c16622f2caf2478a60652f0a755f8931fcadb6e7b2516bd6c7fab2666da64736f6c634300080a0033",
  "immutableReferences": {},
  "source": "// SPDX-License-Identifier: MIT\n// pragma solidity >=0.7.0 <0.9.0;\npragma solidity >=0.4.22 <0.9.0;\n\ncontract PostStorage{\n\n    /*\n    -------------------------\n    ---------STRUCTS---------\n    -------------------------\n    */\n    struct Post{\n        string content;\n        uint likes;\n        uint timestamp;\n    }\n\n    struct Account{\n        string username;\n        Post[] posts;\n    }\n\n    /*\n    -------------------------\n    ---------STORAGE---------\n    -------------------------\n    */\n    mapping(address => Account) private _accounts;\n    uint totalPosts = 0;\n    uint totalLikes = 0;\n\n    /*\n    -------------------------\n    -----USER OPERATIONS-----\n    -------------------------\n    */\n    function getUsername(address _userAddress) public view returns(string memory) {\n        return _accounts[_userAddress].username;\n    }\n\n    function setUsername(string memory _username)public {\n        _accounts[msg.sender].username = _username;\n    }\n\n\n    /*\n    -------------------------\n    -----POST OPERATIONS-----\n    -------------------------\n    */\n    function insertPost(string memory _content)public {\n        _accounts[msg.sender].posts.push(Post(_content, 0, block.timestamp));\n        totalPosts++;\n    }\n\n    function getPosts(address _address)public view returns(Post[] memory){\n        return _accounts[_address].posts;\n    }\n    \n    function getPost(address _address, uint _postIndex) public view returns(Post memory) {\n        return _accounts[_address].posts[_postIndex];\n    }\n\n    function likePost(address _address, uint _postIndex) public {\n        uint postLikes = _accounts[_address].posts[_postIndex].likes;\n        _accounts[_address].posts[_postIndex].likes = postLikes + 1;\n        totalLikes++;\n    }\n\n}\n\n/*\n\"How are you today ?\"\n*/",
  "sourcePath": "C:\\Users\\SP\\Desktop\\Workspace\\Web3\\twitter-clone\\contracts\\PostStorage.sol",
  "compiler": {
    "name": "solc",
    "version": "0.8.10+commit.fc410830.Emscripten.clang"
  },
  "schemaVersion": "3.4.4",
  "updatedAt": "2022-01-29T20:04:01.293Z",
  "networkType": "ethereum",
  "devdoc": {
    "kind": "dev",
    "methods": {},
    "version": 1
  },
  "userdoc": {
    "kind": "user",
    "methods": {},
    "version": 1
  }
}